{
  "_format": "hh-sol-artifact-1",
  "contractName": "TraceContract",
  "sourceName": "contracts/TraceContract.sol",
  "abi": [
    {
      "anonymous": false,
      "inputs": [
        {
          "indexed": true,
          "internalType": "string",
          "name": "txHash",
          "type": "string"
        },
        {
          "indexed": false,
          "internalType": "address",
          "name": "from",
          "type": "address"
        },
        {
          "indexed": false,
          "internalType": "address",
          "name": "to",
          "type": "address"
        },
        {
          "indexed": false,
          "internalType": "uint256",
          "name": "amount",
          "type": "uint256"
        }
      ],
      "name": "TransactionRecorded",
      "type": "event"
    },
    {
      "inputs": [],
      "name": "getTotalTransactions",
      "outputs": [
        {
          "internalType": "uint256",
          "name": "",
          "type": "uint256"
        }
      ],
      "stateMutability": "view",
      "type": "function"
    },
    {
      "inputs": [
        {
          "internalType": "string",
          "name": "_txHash",
          "type": "string"
        }
      ],
      "name": "getTransaction",
      "outputs": [
        {
          "internalType": "address",
          "name": "",
          "type": "address"
        },
        {
          "internalType": "address",
          "name": "",
          "type": "address"
        },
        {
          "internalType": "uint256",
          "name": "",
          "type": "uint256"
        },
        {
          "internalType": "uint256",
          "name": "",
          "type": "uint256"
        },
        {
          "internalType": "string",
          "name": "",
          "type": "string"
        },
        {
          "internalType": "string",
          "name": "",
          "type": "string"
        }
      ],
      "stateMutability": "view",
      "type": "function"
    },
    {
      "inputs": [
        {
          "internalType": "address",
          "name": "_from",
          "type": "address"
        },
        {
          "internalType": "address",
          "name": "_to",
          "type": "address"
        },
        {
          "internalType": "uint256",
          "name": "_amount",
          "type": "uint256"
        },
        {
          "internalType": "string",
          "name": "_chainId",
          "type": "string"
        },
        {
          "internalType": "string",
          "name": "_txHash",
          "type": "string"
        }
      ],
      "name": "recordTransaction",
      "outputs": [],
      "stateMutability": "nonpayable",
      "type": "function"
    },
    {
      "inputs": [
        {
          "internalType": "uint256",
          "name": "",
          "type": "uint256"
        }
      ],
      "name": "transactionHashes",
      "outputs": [
        {
          "internalType": "string",
          "name": "",
          "type": "string"
        }
      ],
      "stateMutability": "view",
      "type": "function"
    },
    {
      "inputs": [
        {
          "internalType": "string",
          "name": "",
          "type": "string"
        }
      ],
      "name": "transactions",
      "outputs": [
        {
          "internalType": "address",
          "name": "from",
          "type": "address"
        },
        {
          "internalType": "address",
          "name": "to",
          "type": "address"
        },
        {
          "internalType": "uint256",
          "name": "amount",
          "type": "uint256"
        },
        {
          "internalType": "uint256",
          "name": "timestamp",
          "type": "uint256"
        },
        {
          "internalType": "string",
          "name": "chainId",
          "type": "string"
        },
        {
          "internalType": "string",
          "name": "txHash",
          "type": "string"
        }
      ],
      "stateMutability": "view",
      "type": "function"
    }
  ],
  "bytecode": "0x608060405234801561001057600080fd5b506110de806100206000396000f3fe608060405234801561001057600080fd5b50600436106100575760003560e01c8063022236f41461005c578063213dafcd14610091578063aa354caa146100c1578063ac2ccd07146100dd578063b5c604ff14610112575b600080fd5b61007660048036038101906100719190610962565b610130565b60405161008896959493929190610a84565b60405180910390f35b6100ab60048036038101906100a69190610b1f565b6102d2565b6040516100b89190610b4c565b60405180910390f35b6100db60048036038101906100d69190610b9a565b61037e565b005b6100f760048036038101906100f29190610962565b610647565b60405161010996959493929190610a84565b60405180910390f35b61011a6107fb565b6040516101279190610c4d565b60405180910390f35b6000818051602081018201805184825260208301602085012081835280955050505050506000915090508060000160009054906101000a900473ffffffffffffffffffffffffffffffffffffffff16908060010160009054906101000a900473ffffffffffffffffffffffffffffffffffffffff16908060020154908060030154908060040180546101c190610c97565b80601f01602080910402602001604051908101604052809291908181526020018280546101ed90610c97565b801561023a5780601f1061020f5761010080835404028352916020019161023a565b820191906000526020600020905b81548152906001019060200180831161021d57829003601f168201915b50505050509080600501805461024f90610c97565b80601f016020809104026020016040519081016040528092919081815260200182805461027b90610c97565b80156102c85780601f1061029d576101008083540402835291602001916102c8565b820191906000526020600020905b8154815290600101906020018083116102ab57829003601f168201915b5050505050905086565b600181815481106102e257600080fd5b9060005260206000200160009150905080546102fd90610c97565b80601f016020809104026020016040519081016040528092919081815260200182805461032990610c97565b80156103765780601f1061034b57610100808354040283529160200191610376565b820191906000526020600020905b81548152906001019060200180831161035957829003601f168201915b505050505081565b60008151116103c2576040517f08c379a00000000000000000000000000000000000000000000000000000000081526004016103b990610d14565b60405180910390fd5b600073ffffffffffffffffffffffffffffffffffffffff166000826040516103ea9190610d70565b908152602001604051809103902060000160009054906101000a900473ffffffffffffffffffffffffffffffffffffffff1673ffffffffffffffffffffffffffffffffffffffff1614610472576040517f08c379a000000000000000000000000000000000000000000000000000000000815260040161046990610dd3565b60405180910390fd5b6040518060c001604052808673ffffffffffffffffffffffffffffffffffffffff1681526020018573ffffffffffffffffffffffffffffffffffffffff168152602001848152602001428152602001838152602001828152506000826040516104db9190610d70565b908152602001604051809103902060008201518160000160006101000a81548173ffffffffffffffffffffffffffffffffffffffff021916908373ffffffffffffffffffffffffffffffffffffffff16021790555060208201518160010160006101000a81548173ffffffffffffffffffffffffffffffffffffffff021916908373ffffffffffffffffffffffffffffffffffffffff160217905550604082015181600201556060820151816003015560808201518160040190816105a09190610f9f565b5060a08201518160050190816105b69190610f9f565b509050506001819080600181540180825580915050600190039060005260206000200160009091909190915090816105ee9190610f9f565b50806040516105fd9190610d70565b60405180910390207fb2083b7a13d05e0a4d89fc7cfaf94d6f07bc6be836b5d9962b5be9728464036786868660405161063893929190611071565b60405180910390a25050505050565b600080600080606080600080886040516106619190610d70565b908152602001604051809103902090508060000160009054906101000a900473ffffffffffffffffffffffffffffffffffffffff168160010160009054906101000a900473ffffffffffffffffffffffffffffffffffffffff168260020154836003015484600401856005018180546106d990610c97565b80601f016020809104026020016040519081016040528092919081815260200182805461070590610c97565b80156107525780601f1061072757610100808354040283529160200191610752565b820191906000526020600020905b81548152906001019060200180831161073557829003601f168201915b5050505050915080805461076590610c97565b80601f016020809104026020016040519081016040528092919081815260200182805461079190610c97565b80156107de5780601f106107b3576101008083540402835291602001916107de565b820191906000526020600020905b8154815290600101906020018083116107c157829003601f168201915b505050505090509650965096509650965096505091939550919395565b6000600180549050905090565b6000604051905090565b600080fd5b600080fd5b600080fd5b600080fd5b6000601f19601f8301169050919050565b7f4e487b7100000000000000000000000000000000000000000000000000000000600052604160045260246000fd5b61086f82610826565b810181811067ffffffffffffffff8211171561088e5761088d610837565b5b80604052505050565b60006108a1610808565b90506108ad8282610866565b919050565b600067ffffffffffffffff8211156108cd576108cc610837565b5b6108d682610826565b9050602081019050919050565b82818337600083830152505050565b6000610905610900846108b2565b610897565b90508281526020810184848401111561092157610920610821565b5b61092c8482856108e3565b509392505050565b600082601f8301126109495761094861081c565b5b81356109598482602086016108f2565b91505092915050565b60006020828403121561097857610977610812565b5b600082013567ffffffffffffffff81111561099657610995610817565b5b6109a284828501610934565b91505092915050565b600073ffffffffffffffffffffffffffffffffffffffff82169050919050565b60006109d6826109ab565b9050919050565b6109e6816109cb565b82525050565b6000819050919050565b6109ff816109ec565b82525050565b600081519050919050565b600082825260208201905092915050565b60005b83811015610a3f578082015181840152602081019050610a24565b60008484015250505050565b6000610a5682610a05565b610a608185610a10565b9350610a70818560208601610a21565b610a7981610826565b840191505092915050565b600060c082019050610a9960008301896109dd565b610aa660208301886109dd565b610ab360408301876109f6565b610ac060608301866109f6565b8181036080830152610ad28185610a4b565b905081810360a0830152610ae68184610a4b565b9050979650505050505050565b610afc816109ec565b8114610b0757600080fd5b50565b600081359050610b1981610af3565b92915050565b600060208284031215610b3557610b34610812565b5b6000610b4384828501610b0a565b91505092915050565b60006020820190508181036000830152610b668184610a4b565b905092915050565b610b77816109cb565b8114610b8257600080fd5b50565b600081359050610b9481610b6e565b92915050565b600080600080600060a08688031215610bb657610bb5610812565b5b6000610bc488828901610b85565b9550506020610bd588828901610b85565b9450506040610be688828901610b0a565b935050606086013567ffffffffffffffff811115610c0757610c06610817565b5b610c1388828901610934565b925050608086013567ffffffffffffffff811115610c3457610c33610817565b5b610c4088828901610934565b9150509295509295909350565b6000602082019050610c6260008301846109f6565b92915050565b7f4e487b7100000000000000000000000000000000000000000000000000000000600052602260045260246000fd5b60006002820490506001821680610caf57607f821691505b602082108103610cc257610cc1610c68565b5b50919050565b7f5472616e73616374696f6e20686173682063616e6e6f7420626520656d707479600082015250565b6000610cfe602083610a10565b9150610d0982610cc8565b602082019050919050565b60006020820190508181036000830152610d2d81610cf1565b9050919050565b600081905092915050565b6000610d4a82610a05565b610d548185610d34565b9350610d64818560208601610a21565b80840191505092915050565b6000610d7c8284610d3f565b915081905092915050565b7f5472616e73616374696f6e20616c7265616479207265636f7264656400000000600082015250565b6000610dbd601c83610a10565b9150610dc882610d87565b602082019050919050565b60006020820190508181036000830152610dec81610db0565b9050919050565b60008190508160005260206000209050919050565b60006020601f8301049050919050565b600082821b905092915050565b600060088302610e557fffffffffffffffffffffffffffffffffffffffffffffffffffffffffffffffff82610e18565b610e5f8683610e18565b95508019841693508086168417925050509392505050565b6000819050919050565b6000610e9c610e97610e92846109ec565b610e77565b6109ec565b9050919050565b6000819050919050565b610eb683610e81565b610eca610ec282610ea3565b848454610e25565b825550505050565b600090565b610edf610ed2565b610eea818484610ead565b505050565b5b81811015610f0e57610f03600082610ed7565b600181019050610ef0565b5050565b601f821115610f5357610f2481610df3565b610f2d84610e08565b81016020851015610f3c578190505b610f50610f4885610e08565b830182610eef565b50505b505050565b600082821c905092915050565b6000610f7660001984600802610f58565b1980831691505092915050565b6000610f8f8383610f65565b9150826002028217905092915050565b610fa882610a05565b67ffffffffffffffff811115610fc157610fc0610837565b5b610fcb8254610c97565b610fd6828285610f12565b600060209050601f8311600181146110095760008415610ff7578287015190505b6110018582610f83565b865550611069565b601f19841661101786610df3565b60005b8281101561103f5784890151825560018201915060208501945060208101905061101a565b8683101561105c5784890151611058601f891682610f65565b8355505b6001600288020188555050505b505050505050565b600060608201905061108660008301866109dd565b61109360208301856109dd565b6110a060408301846109f6565b94935050505056fea26469706673582212203555f58d79cf68f6d38d0c1bae42f6645a9ecc7608192f6c3fb2c9fbabf51c3a64736f6c63430008130033",
  "linkReferences": {},
  "deployedLinkReferences": {}
}